{
  "contractName": "RLPTest",
  "abi": [
    {
      "constant": true,
      "inputs": [
        {
          "name": "tx_bytes",
          "type": "bytes"
        }
      ],
      "name": "eight",
      "outputs": [
        {
          "name": "",
          "type": "uint256"
        },
        {
          "name": "",
          "type": "address"
        },
        {
          "name": "",
          "type": "address"
        }
      ],
      "payable": false,
      "stateMutability": "view",
      "type": "function"
    },
    {
      "constant": true,
      "inputs": [
        {
          "name": "tx_bytes",
          "type": "bytes"
        }
      ],
      "name": "eleven",
      "outputs": [
        {
          "name": "",
          "type": "uint256"
        },
        {
          "name": "",
          "type": "address"
        },
        {
          "name": "",
          "type": "address"
        },
        {
          "name": "",
          "type": "address"
        }
      ],
      "payable": false,
      "stateMutability": "view",
      "type": "function"
    }
  ],
  "bytecode": "0x608060405234801561001057600080fd5b50610756806100206000396000f30060806040526004361061004c576000357c0100000000000000000000000000000000000000000000000000000000900463ffffffff16806374eed5d0146100515780638b994eb514610134575b600080fd5b34801561005d57600080fd5b506100b8600480360381019080803590602001908201803590602001908080601f016020809104026020016040519081016040528093929190818152602001838380828437820191505050505050919291929050505061024a565b604051808481526020018373ffffffffffffffffffffffffffffffffffffffff1673ffffffffffffffffffffffffffffffffffffffff1681526020018273ffffffffffffffffffffffffffffffffffffffff1673ffffffffffffffffffffffffffffffffffffffff168152602001935050505060405180910390f35b34801561014057600080fd5b5061019b600480360381019080803590602001908201803590602001908080601f01602080910402602001604051908101604052809392919081815260200183838082843782019150505050505091929192905050506102d5565b604051808581526020018473ffffffffffffffffffffffffffffffffffffffff1673ffffffffffffffffffffffffffffffffffffffff1681526020018373ffffffffffffffffffffffffffffffffffffffff1673ffffffffffffffffffffffffffffffffffffffff1681526020018273ffffffffffffffffffffffffffffffffffffffff1673ffffffffffffffffffffffffffffffffffffffff16815260200194505050505060405180910390f35b6000806000606061026261025d86610384565b6103da565b905061028581600581518110151561027657fe5b906020019060200201516104b6565b6102a682600681518110151561029757fe5b906020019060200201516104f8565b6102c78360078151811015156102b857fe5b906020019060200201516104f8565b935093509350509193909250565b60008060008060606102ee6102e987610384565b6103da565b905061031181600781518110151561030257fe5b906020019060200201516104b6565b61033282600881518110151561032357fe5b906020019060200201516104f8565b61035383600981518110151561034457fe5b906020019060200201516104f8565b61037484600a81518110151561036557fe5b906020019060200201516104f8565b9450945094509450509193509193565b61038c6106f6565b600080835114156103b557604080519081016040528060008152602001600081525091506103d4565b6020830190506040805190810160405280845181526020018281525091505b50919050565b60606000806000806103eb8661052f565b15156103f657600080fd5b6103ff86610566565b93508360405190808252806020026020018201604052801561043b57816020015b610428610710565b8152602001906001900390816104205790505b50945061044b86602001516105c0565b8660200151019250600090505b838110156104ad5761046983610646565b9150604080519081016040528083815260200184815250858281518110151561048e57fe5b9060200190602002018190525081830192508080600101915050610458565b50505050919050565b60008060008060006104cb86602001516105c0565b9350838660000151039250838660200151019150826020036101000a825104905080945050505050919050565b60008060006015846000015114151561051057600080fd5b60018460200151019150600c6101000a82510490508092505050919050565b600080600083602001519050805160001a915060c060ff168260ff16101561055a576000925061055f565b600192505b5050919050565b6000806000806000925061057d85602001516105c0565b8560200151019150846000015185602001510190505b808210156105b5576105a482610646565b820191508280600101935050610593565b829350505050919050565b600080825160001a9050608060ff168110156105df5760009150610640565b60b860ff16811080610604575060c060ff168110158015610603575060f860ff1681105b5b156106125760019150610640565b60c060ff168110156106315760018060b80360ff168203019150610640565b60018060f80360ff1682030191505b50919050565b600080825160001a9050608060ff1681101561066557600191506106f0565b60b860ff16811015610682576001608060ff1682030191506106f0565b60c060ff168110156106b25760b78103600184019350806020036101000a845104600182018101935050506106ef565b60f860ff168110156106cf57600160c060ff1682030191506106f0565b60f78103600184019350806020036101000a845104600182018101935050505b5b50919050565b604080519081016040528060008152602001600081525090565b6040805190810160405280600081526020016000815250905600a165627a7a723058202cdbc6c334e06b6b840fd13deaacd1c01be04bfca8716ca285ebc0c0056d5f2f0029",
  "source": "pragma solidity ^0.4.0;\n\nimport \"./RLP.sol\";\n\n\ncontract RLPTest {\n    function eight(bytes tx_bytes)\n        public\n        view\n        returns (uint256, address, address)\n    {\n        var txList = RLP.toList(RLP.toRlpItem(tx_bytes));\n        return (\n            RLP.toUint(txList[5]),\n            RLP.toAddress(txList[6]),\n            RLP.toAddress(txList[7])\n        );\n    }\n\n    function eleven(bytes tx_bytes)\n        public\n        view\n        returns (uint256, address, address, address)\n    {\n        var txList = RLP.toList(RLP.toRlpItem(tx_bytes));\n        return (\n            RLP.toUint(txList[7]),\n            RLP.toAddress(txList[8]),\n            RLP.toAddress(txList[9]),\n            RLP.toAddress(txList[10])\n        );\n    }\n}\n",
  "sourcePath": "/Users/pongcheecharern/gri-js/gaia-poa-chain/gaia-rootchain/contracts/RLPTest.sol",
  "compiler": {
    "name": "solc",
    "version": "0.4.24+commit.e67f0147.Emscripten.clang"
  },
  "schemaVersion": "2.0.1",
  "updatedAt": "2018-09-08T11:52:32.336Z"
}