{
  "contractName": "RootChain",
  "abi": [
    {
      "constant": true,
      "inputs": [
        {
          "name": "",
          "type": "uint256"
        }
      ],
      "name": "exits",
      "outputs": [
        {
          "name": "owner",
          "type": "address"
        },
        {
          "name": "token",
          "type": "address"
        },
        {
          "name": "amount",
          "type": "uint256"
        }
      ],
      "payable": false,
      "stateMutability": "view",
      "type": "function"
    },
    {
      "constant": true,
      "inputs": [],
      "name": "operator",
      "outputs": [
        {
          "name": "",
          "type": "address"
        }
      ],
      "payable": false,
      "stateMutability": "view",
      "type": "function"
    },
    {
      "constant": true,
      "inputs": [],
      "name": "currentChildBlock",
      "outputs": [
        {
          "name": "",
          "type": "uint256"
        }
      ],
      "payable": false,
      "stateMutability": "view",
      "type": "function"
    },
    {
      "constant": true,
      "inputs": [],
      "name": "CHILD_BLOCK_INTERVAL",
      "outputs": [
        {
          "name": "",
          "type": "uint256"
        }
      ],
      "payable": false,
      "stateMutability": "view",
      "type": "function"
    },
    {
      "constant": true,
      "inputs": [],
      "name": "currentDepositBlock",
      "outputs": [
        {
          "name": "",
          "type": "uint256"
        }
      ],
      "payable": false,
      "stateMutability": "view",
      "type": "function"
    },
    {
      "constant": true,
      "inputs": [],
      "name": "currentFeeExit",
      "outputs": [
        {
          "name": "",
          "type": "uint256"
        }
      ],
      "payable": false,
      "stateMutability": "view",
      "type": "function"
    },
    {
      "constant": true,
      "inputs": [
        {
          "name": "",
          "type": "address"
        }
      ],
      "name": "exitsQueues",
      "outputs": [
        {
          "name": "",
          "type": "address"
        }
      ],
      "payable": false,
      "stateMutability": "view",
      "type": "function"
    },
    {
      "constant": true,
      "inputs": [
        {
          "name": "",
          "type": "uint256"
        }
      ],
      "name": "childChain",
      "outputs": [
        {
          "name": "root",
          "type": "bytes32"
        },
        {
          "name": "timestamp",
          "type": "uint256"
        }
      ],
      "payable": false,
      "stateMutability": "view",
      "type": "function"
    },
    {
      "inputs": [],
      "payable": false,
      "stateMutability": "nonpayable",
      "type": "constructor"
    },
    {
      "anonymous": false,
      "inputs": [
        {
          "indexed": true,
          "name": "depositor",
          "type": "address"
        },
        {
          "indexed": true,
          "name": "depositBlock",
          "type": "uint256"
        },
        {
          "indexed": false,
          "name": "token",
          "type": "address"
        },
        {
          "indexed": false,
          "name": "amount",
          "type": "uint256"
        }
      ],
      "name": "Deposit",
      "type": "event"
    },
    {
      "anonymous": false,
      "inputs": [
        {
          "indexed": true,
          "name": "exitor",
          "type": "address"
        },
        {
          "indexed": true,
          "name": "utxoPos",
          "type": "uint256"
        },
        {
          "indexed": false,
          "name": "token",
          "type": "address"
        },
        {
          "indexed": false,
          "name": "amount",
          "type": "uint256"
        }
      ],
      "name": "ExitStarted",
      "type": "event"
    },
    {
      "anonymous": false,
      "inputs": [
        {
          "indexed": false,
          "name": "blockNumber",
          "type": "uint256"
        }
      ],
      "name": "BlockSubmitted",
      "type": "event"
    },
    {
      "anonymous": false,
      "inputs": [
        {
          "indexed": false,
          "name": "token",
          "type": "address"
        }
      ],
      "name": "TokenAdded",
      "type": "event"
    },
    {
      "constant": false,
      "inputs": [
        {
          "name": "_token",
          "type": "address"
        }
      ],
      "name": "addToken",
      "outputs": [],
      "payable": false,
      "stateMutability": "nonpayable",
      "type": "function"
    },
    {
      "constant": false,
      "inputs": [
        {
          "name": "_root",
          "type": "bytes32"
        }
      ],
      "name": "submitBlock",
      "outputs": [],
      "payable": false,
      "stateMutability": "nonpayable",
      "type": "function"
    },
    {
      "constant": false,
      "inputs": [],
      "name": "deposit",
      "outputs": [],
      "payable": true,
      "stateMutability": "payable",
      "type": "function"
    },
    {
      "constant": false,
      "inputs": [
        {
          "name": "_owner",
          "type": "address"
        },
        {
          "name": "_token",
          "type": "address"
        },
        {
          "name": "_amount",
          "type": "uint256"
        }
      ],
      "name": "depositFrom",
      "outputs": [],
      "payable": false,
      "stateMutability": "nonpayable",
      "type": "function"
    },
    {
      "constant": false,
      "inputs": [
        {
          "name": "_depositPos",
          "type": "uint256"
        },
        {
          "name": "_token",
          "type": "address"
        },
        {
          "name": "_amount",
          "type": "uint256"
        }
      ],
      "name": "startDepositExit",
      "outputs": [],
      "payable": false,
      "stateMutability": "nonpayable",
      "type": "function"
    },
    {
      "constant": false,
      "inputs": [
        {
          "name": "_token",
          "type": "address"
        },
        {
          "name": "_amount",
          "type": "uint256"
        }
      ],
      "name": "startFeeExit",
      "outputs": [],
      "payable": false,
      "stateMutability": "nonpayable",
      "type": "function"
    },
    {
      "constant": false,
      "inputs": [
        {
          "name": "_utxoPos",
          "type": "uint256"
        },
        {
          "name": "_txBytes",
          "type": "bytes"
        },
        {
          "name": "_proof",
          "type": "bytes"
        },
        {
          "name": "_sigs",
          "type": "bytes"
        }
      ],
      "name": "startExit",
      "outputs": [],
      "payable": false,
      "stateMutability": "nonpayable",
      "type": "function"
    },
    {
      "constant": false,
      "inputs": [
        {
          "name": "_cUtxoPos",
          "type": "uint256"
        },
        {
          "name": "_eUtxoIndex",
          "type": "uint256"
        },
        {
          "name": "_txBytes",
          "type": "bytes"
        },
        {
          "name": "_proof",
          "type": "bytes"
        },
        {
          "name": "_sigs",
          "type": "bytes"
        },
        {
          "name": "_confirmationSig",
          "type": "bytes"
        }
      ],
      "name": "challengeExit",
      "outputs": [],
      "payable": false,
      "stateMutability": "nonpayable",
      "type": "function"
    },
    {
      "constant": false,
      "inputs": [
        {
          "name": "_token",
          "type": "address"
        }
      ],
      "name": "finalizeExits",
      "outputs": [],
      "payable": false,
      "stateMutability": "nonpayable",
      "type": "function"
    },
    {
      "constant": true,
      "inputs": [
        {
          "name": "_token",
          "type": "address"
        }
      ],
      "name": "hasToken",
      "outputs": [
        {
          "name": "",
          "type": "bool"
        }
      ],
      "payable": false,
      "stateMutability": "view",
      "type": "function"
    },
    {
      "constant": true,
      "inputs": [
        {
          "name": "_blockNumber",
          "type": "uint256"
        }
      ],
      "name": "getChildChain",
      "outputs": [
        {
          "name": "",
          "type": "bytes32"
        },
        {
          "name": "",
          "type": "uint256"
        }
      ],
      "payable": false,
      "stateMutability": "view",
      "type": "function"
    },
    {
      "constant": true,
      "inputs": [],
      "name": "getDepositBlock",
      "outputs": [
        {
          "name": "",
          "type": "uint256"
        }
      ],
      "payable": false,
      "stateMutability": "view",
      "type": "function"
    },
    {
      "constant": true,
      "inputs": [
        {
          "name": "_utxoPos",
          "type": "uint256"
        }
      ],
      "name": "getExit",
      "outputs": [
        {
          "name": "",
          "type": "address"
        },
        {
          "name": "",
          "type": "address"
        },
        {
          "name": "",
          "type": "uint256"
        }
      ],
      "payable": false,
      "stateMutability": "view",
      "type": "function"
    },
    {
      "constant": true,
      "inputs": [
        {
          "name": "_token",
          "type": "address"
        }
      ],
      "name": "getNextExit",
      "outputs": [
        {
          "name": "",
          "type": "uint256"
        },
        {
          "name": "",
          "type": "uint256"
        }
      ],
      "payable": false,
      "stateMutability": "view",
      "type": "function"
    }
  ],
  "bytecode": "0x60806040523480156200001157600080fd5b50336000806101000a81548173ffffffffffffffffffffffffffffffffffffffff021916908373ffffffffffffffffffffffffffffffffffffffff1602179055506103e8600181905550600160028190555060016003819055506200007562000116565b604051809103906000f08015801562000092573d6000803e3d6000fd5b50600660008073ffffffffffffffffffffffffffffffffffffffff1673ffffffffffffffffffffffffffffffffffffffff16815260200190815260200160002060006101000a81548173ffffffffffffffffffffffffffffffffffffffff021916908373ffffffffffffffffffffffffffffffffffffffff16021790555062000127565b60405161083b80620036f983390190565b6135c280620001376000396000f3006080604052600436106200013f576000357c0100000000000000000000000000000000000000000000000000000000900463ffffffff1680631c91a6b9146200014457806332773ba31462000246578063342de179146200039857806340b8d53a1462000442578063570ca735146200049257806368a9674d14620004ec5780637a95f1e8146200055c5780637d7b2051146200058a57806385444de314620005d05780638bfe0aec14620006235780639bb0f5991462000684578063a831fa0714620006e2578063a98c7f2c1462000710578063baa47694146200073e578063bcd592611462000772578063cfe7d85514620007a0578063d0e30db014620007ce578063d11f045c14620007da578063d48bfca71462000860578063e60f1ff114620008a6578063f82f7a4b1462000950578063f95643b114620009aa575b600080fd5b3480156200015157600080fd5b506200024460048036038101908080359060200190929190803590602001908201803590602001908080601f0160208091040260200160405190810160405280939291908181526020018383808284378201915050505050509192919290803590602001908201803590602001908080601f0160208091040260200160405190810160405280939291908181526020018383808284378201915050505050509192919290803590602001908201803590602001908080601f0160208091040260200160405190810160405280939291908181526020018383808284378201915050505050509192919290505050620009fd565b005b3480156200025357600080fd5b50620003966004803603810190808035906020019092919080359060200190929190803590602001908201803590602001908080601f0160208091040260200160405190810160405280939291908181526020018383808284378201915050505050509192919290803590602001908201803590602001908080601f0160208091040260200160405190810160405280939291908181526020018383808284378201915050505050509192919290803590602001908201803590602001908080601f0160208091040260200160405190810160405280939291908181526020018383808284378201915050505050509192919290803590602001908201803590602001908080601f016020809104026020016040519081016040528093929190818152602001838380828437820191505050505050919291929050505062000c94565b005b348015620003a557600080fd5b50620003c66004803603810190808035906020019092919050505062000efe565b604051808473ffffffffffffffffffffffffffffffffffffffff1673ffffffffffffffffffffffffffffffffffffffff1681526020018373ffffffffffffffffffffffffffffffffffffffff1673ffffffffffffffffffffffffffffffffffffffff168152602001828152602001935050505060405180910390f35b3480156200044f57600080fd5b5062000490600480360381019080803573ffffffffffffffffffffffffffffffffffffffff1690602001909291908035906020019092919050505062000f68565b005b3480156200049f57600080fd5b50620004aa62000ffa565b604051808273ffffffffffffffffffffffffffffffffffffffff1673ffffffffffffffffffffffffffffffffffffffff16815260200191505060405180910390f35b348015620004f957600080fd5b506200055a600480360381019080803573ffffffffffffffffffffffffffffffffffffffff169060200190929190803573ffffffffffffffffffffffffffffffffffffffff169060200190929190803590602001909291905050506200101f565b005b3480156200056957600080fd5b506200057462001165565b6040518082815260200191505060405180910390f35b3480156200059757600080fd5b50620005ce600480360381019080803573ffffffffffffffffffffffffffffffffffffffff1690602001909291905050506200116b565b005b348015620005dd57600080fd5b50620005fe60048036038101908080359060200190929190505050620016dd565b6040518083600019166000191681526020018281526020019250505060405180910390f35b3480156200063057600080fd5b5062000667600480360381019080803573ffffffffffffffffffffffffffffffffffffffff16906020019092919050505062001717565b604051808381526020018281526020019250505060405180910390f35b3480156200069157600080fd5b50620006c8600480360381019080803573ffffffffffffffffffffffffffffffffffffffff16906020019092919050505062001850565b604051808215151515815260200191505060405180910390f35b348015620006ef57600080fd5b50620006fa620018e8565b6040518082815260200191505060405180910390f35b3480156200071d57600080fd5b5062000728620018ee565b6040518082815260200191505060405180910390f35b3480156200074b57600080fd5b50620007706004803603810190808035600019169060200190929190505050620018f4565b005b3480156200077f57600080fd5b506200078a62001a04565b6040518082815260200191505060405180910390f35b348015620007ad57600080fd5b50620007b862001a3a565b6040518082815260200191505060405180910390f35b620007d862001a40565b005b348015620007e757600080fd5b506200081e600480360381019080803573ffffffffffffffffffffffffffffffffffffffff16906020019092919050505062001a63565b604051808273ffffffffffffffffffffffffffffffffffffffff1673ffffffffffffffffffffffffffffffffffffffff16815260200191505060405180910390f35b3480156200086d57600080fd5b50620008a4600480360381019080803573ffffffffffffffffffffffffffffffffffffffff16906020019092919050505062001a96565b005b348015620008b357600080fd5b50620008d46004803603810190808035906020019092919050505062001bb9565b604051808473ffffffffffffffffffffffffffffffffffffffff1673ffffffffffffffffffffffffffffffffffffffff1681526020018373ffffffffffffffffffffffffffffffffffffffff1673ffffffffffffffffffffffffffffffffffffffff168152602001828152602001935050505060405180910390f35b3480156200095d57600080fd5b50620009a860048036038101908080359060200190929190803573ffffffffffffffffffffffffffffffffffffffff1690602001909291908035906020019092919050505062001c50565b005b348015620009b757600080fd5b50620009d86004803603810190808035906020019092919050505062001d82565b6040518083600019166000191681526020018281526020019250505060405180910390f35b600080600062000a0c62002c73565b600080633b9aca008a81151562000a1f57fe5b049550612710633b9aca008b81151562000a3557fe5b0681151562000a4057fe5b0494506127108502633b9aca0087028b0303935062000a69848a62001da690919063ffffffff16565b9250826000015173ffffffffffffffffffffffffffffffffffffffff163373ffffffffffffffffffffffffffffffffffffffff1614151562000aaa57600080fd5b60046000878152602001908152602001600020600001549150886040518082805190602001908083835b60208310151562000afb578051825260208201915060208101905060208303925062000ad4565b6001836020036101000a038019825116818451168082178552505050505050905001915050604051809103902062000b37886000608262001edb565b60405180836000191660001916815260200182805190602001908083835b60208310151562000b7c578051825260208201915060208101905060208303925062000b55565b6001836020036101000a038019825116818451168082178552505050505050905001925050506040518091039020905062000c22896040518082805190602001908083835b60208310151562000be8578051825260208201915060208101905060208303925062000bc1565b6001836020036101000a03801982511681845116808217855250505050505090500191505060405180910390208385606001518a62001f6d565b151562000c2e57600080fd5b62000c4b85838a8460001916620020d9909392919063ffffffff16565b151562000c5757600080fd5b62000c888a846000015185602001518660400151600460008c815260200190815260200160002060010154620021bd565b50505050505050505050565b600080600080600080600062000cb48c8c6200252590919063ffffffff16565b9650612710633b9aca008e81151562000cc957fe5b0681151562000cd457fe5b04955060046000633b9aca008f81151562000ceb57fe5b0481526020019081526020016000206000015494508a6040518082805190602001908083835b60208310151562000d38578051825260208201915060208101905060208303925062000d11565b6001836020036101000a03801982511681845116808217855250505050505090500191505060405180910390209350838560405180836000191660001916815260200182600019166000191681526020019250505060405180910390209250838960405180836000191660001916815260200182805190602001908083835b60208310151562000dde578051825260208201915060208101905060208303925062000db7565b6001836020036101000a03801982511681845116808217855250505050505090500192505050604051809103902091506005600088815260200190815260200160002060000160009054906101000a900473ffffffffffffffffffffffffffffffffffffffff16905062000e538389620025e0565b73ffffffffffffffffffffffffffffffffffffffff168173ffffffffffffffffffffffffffffffffffffffff1614151562000e8d57600080fd5b62000eaa86868c8560001916620020d9909392919063ffffffff16565b151562000eb657600080fd5b6005600088815260200190815260200160002060000160006101000a81549073ffffffffffffffffffffffffffffffffffffffff021916905550505050505050505050505050565b60056020528060005260406000206000915090508060000160009054906101000a900473ffffffffffffffffffffffffffffffffffffffff16908060010160009054906101000a900473ffffffffffffffffffffffffffffffffffffffff16908060020154905083565b6000809054906101000a900473ffffffffffffffffffffffffffffffffffffffff1673ffffffffffffffffffffffffffffffffffffffff163373ffffffffffffffffffffffffffffffffffffffff1614151562000fc457600080fd5b62000fd860035433848460014201620021bd565b62000ff06001600354620026df90919063ffffffff16565b6003819055505050565b6000809054906101000a900473ffffffffffffffffffffffffffffffffffffffff1681565b6103e86002541015156200103257600080fd5b8173ffffffffffffffffffffffffffffffffffffffff166323b872dd8430846040518463ffffffff167c0100000000000000000000000000000000000000000000000000000000028152600401808473ffffffffffffffffffffffffffffffffffffffff1673ffffffffffffffffffffffffffffffffffffffff1681526020018373ffffffffffffffffffffffffffffffffffffffff1673ffffffffffffffffffffffffffffffffffffffff1681526020018281526020019350505050602060405180830381600087803b1580156200110a57600080fd5b505af11580156200111f573d6000803e3d6000fd5b505050506040513d60208110156200113657600080fd5b810190808051906020019092919050505015156200115357600080fd5b62001160838383620026fe565b505050565b60015481565b6000806200117862002cc8565b6000620011858562001717565b809450819550505060056000858152602001908152602001600020606060405190810160405290816000820160009054906101000a900473ffffffffffffffffffffffffffffffffffffffff1673ffffffffffffffffffffffffffffffffffffffff1673ffffffffffffffffffffffffffffffffffffffff1681526020016001820160009054906101000a900473ffffffffffffffffffffffffffffffffffffffff1673ffffffffffffffffffffffffffffffffffffffff1673ffffffffffffffffffffffffffffffffffffffff1681526020016002820154815250509150600660008673ffffffffffffffffffffffffffffffffffffffff1673ffffffffffffffffffffffffffffffffffffffff16815260200190815260200160002060009054906101000a900473ffffffffffffffffffffffffffffffffffffffff1690505b42831015620016d55760056000858152602001908152602001600020606060405190810160405290816000820160009054906101000a900473ffffffffffffffffffffffffffffffffffffffff1673ffffffffffffffffffffffffffffffffffffffff1673ffffffffffffffffffffffffffffffffffffffff1681526020016001820160009054906101000a900473ffffffffffffffffffffffffffffffffffffffff1673ffffffffffffffffffffffffffffffffffffffff1673ffffffffffffffffffffffffffffffffffffffff16815260200160028201548152505091508073ffffffffffffffffffffffffffffffffffffffff1663b07576ac6040518163ffffffff167c0100000000000000000000000000000000000000000000000000000000028152600401602060405180830381600087803b1580156200140c57600080fd5b505af115801562001421573d6000803e3d6000fd5b505050506040513d60208110156200143857600080fd5b8101908080519060200190929190505050506005600085815260200190815260200160002060000160006101000a81549073ffffffffffffffffffffffffffffffffffffffff0219169055600073ffffffffffffffffffffffffffffffffffffffff168573ffffffffffffffffffffffffffffffffffffffff1614156200150f57816000015173ffffffffffffffffffffffffffffffffffffffff166108fc83604001519081150290604051600060405180830381858888f1935050505015801562001508573d6000803e3d6000fd5b5062001605565b8473ffffffffffffffffffffffffffffffffffffffff1663a9059cbb836000015184604001516040518363ffffffff167c0100000000000000000000000000000000000000000000000000000000028152600401808373ffffffffffffffffffffffffffffffffffffffff1673ffffffffffffffffffffffffffffffffffffffff16815260200182815260200192505050602060405180830381600087803b158015620015bb57600080fd5b505af1158015620015d0573d6000803e3d6000fd5b505050506040513d6020811015620015e757600080fd5b810190808051906020019092919050505015156200160457600080fd5b5b60008173ffffffffffffffffffffffffffffffffffffffff1663bda1504b6040518163ffffffff167c0100000000000000000000000000000000000000000000000000000000028152600401602060405180830381600087803b1580156200166c57600080fd5b505af115801562001681573d6000803e3d6000fd5b505050506040513d60208110156200169857600080fd5b81019080805190602001909291905050501115620016c957620016bb8562001717565b8094508195505050620016cf565b620016d6565b620012c7565b5b5050505050565b6000806004600084815260200190815260200160002060000154600460008581526020019081526020016000206001015491509150915091565b6000806000806000600660008773ffffffffffffffffffffffffffffffffffffffff1673ffffffffffffffffffffffffffffffffffffffff16815260200190815260200160002060009054906101000a900473ffffffffffffffffffffffffffffffffffffffff1673ffffffffffffffffffffffffffffffffffffffff1663d6362e976040518163ffffffff167c0100000000000000000000000000000000000000000000000000000000028152600401602060405180830381600087803b158015620017e357600080fd5b505af1158015620017f8573d6000803e3d6000fd5b505050506040513d60208110156200180f57600080fd5b81019080805190602001909291905050509250826fffffffffffffffffffffffffffffffff1691506080839060020a90049050818194509450505050915091565b60008073ffffffffffffffffffffffffffffffffffffffff16600660008473ffffffffffffffffffffffffffffffffffffffff1673ffffffffffffffffffffffffffffffffffffffff16815260200190815260200160002060009054906101000a900473ffffffffffffffffffffffffffffffffffffffff1673ffffffffffffffffffffffffffffffffffffffff1614159050919050565b6103e881565b60025481565b60008060009054906101000a900473ffffffffffffffffffffffffffffffffffffffff1673ffffffffffffffffffffffffffffffffffffffff163373ffffffffffffffffffffffffffffffffffffffff161415156200195257600080fd5b6001549050604080519081016040528083600019168152602001428152506004600060015481526020019081526020016000206000820151816000019060001916905560208201518160010155905050620019bb6103e8600154620026df90919063ffffffff16565b60018190555060016002819055507f5a978f4723b249ccf79cd7a658a8601ce1ff8b89fc770251a6be35216351ce32816040518082815260200191505060405180910390a15050565b600062001a3560025462001a266103e86001546200289c90919063ffffffff16565b620026df90919063ffffffff16565b905090565b60035481565b6103e860025410151562001a5357600080fd5b62001a6133600034620026fe565b565b60066020528060005260406000206000915054906101000a900473ffffffffffffffffffffffffffffffffffffffff1681565b62001aa18162001850565b15151562001aae57600080fd5b62001ab862002d16565b604051809103906000f08015801562001ad5573d6000803e3d6000fd5b50600660008373ffffffffffffffffffffffffffffffffffffffff1673ffffffffffffffffffffffffffffffffffffffff16815260200190815260200160002060006101000a81548173ffffffffffffffffffffffffffffffffffffffff021916908373ffffffffffffffffffffffffffffffffffffffff1602179055507f784c8f4dbf0ffedd6e72c76501c545a70f8b203b30a26ce542bf92ba87c248a481604051808273ffffffffffffffffffffffffffffffffffffffff1673ffffffffffffffffffffffffffffffffffffffff16815260200191505060405180910390a150565b60008060006005600085815260200190815260200160002060000160009054906101000a900473ffffffffffffffffffffffffffffffffffffffff166005600086815260200190815260200160002060010160009054906101000a900473ffffffffffffffffffffffffffffffffffffffff1660056000878152602001908152602001600020600201549250925092509193909250565b6000806000633b9aca008681151562001c6557fe5b04925060006103e88481151562001c7857fe5b061415151562001c8757600080fd5b60046000848152602001908152602001600020600001549150338585604051808473ffffffffffffffffffffffffffffffffffffffff1673ffffffffffffffffffffffffffffffffffffffff166c010000000000000000000000000281526014018373ffffffffffffffffffffffffffffffffffffffff1673ffffffffffffffffffffffffffffffffffffffff166c010000000000000000000000000281526014018281526020019350505050604051809103902090508060001916826000191614151562001d5557600080fd5b62001d7a863387876004600089815260200190815260200160002060010154620021bd565b505050505050565b60046020528060005260406000206000915090508060000154908060010154905082565b62001db062002c73565b606062001dc762001dc185620028b6565b62002910565b905060806040519081016040528062001dfe838660020260070181518110151562001dee57fe5b90602001906020020151620029fc565b73ffffffffffffffffffffffffffffffffffffffff16815260200162001e3d83600681518110151562001e2d57fe5b90602001906020020151620029fc565b73ffffffffffffffffffffffffffffffffffffffff16815260200162001e81838660020260080181518110151562001e7157fe5b9060200190602002015162002a34565b815260200162001eaa83600381518110151562001e9a57fe5b9060200190602002015162002a34565b62001ece84600081518110151562001ebe57fe5b9060200190602002015162002a34565b0281525091505092915050565b60608082840185511015151562001ef157600080fd5b82156000811462001f0e5760405191506020820160405262001f61565b6040519150601f8416801560200281840101858101878315602002848b0101015b8183101562001f4e578051835260208301925060208101905062001f2f565b50868552601f19601f8301166040525050505b50809150509392505050565b6000606080606060008060006060600060418a5181151562001f8b57fe5b0614801562001f9d5750610104895111155b151562001fa957600080fd5b62001fb8896000604162001edb565b965062001fc88960418062001edb565b955062001fd9896082604162001edb565b94508b8b6040518083600019166000191681526020018260001916600019168152602001925050506040518091039020935060019250600191506200201f8486620025e0565b73ffffffffffffffffffffffffffffffffffffffff16620020418d89620025e0565b73ffffffffffffffffffffffffffffffffffffffff1614925060008a1115620020bd57620020738960c3604162001edb565b9050620020818482620025e0565b73ffffffffffffffffffffffffffffffffffffffff16620020a38d88620025e0565b73ffffffffffffffffffffffffffffffffffffffff161491505b828015620020c85750815b975050505050505050949350505050565b6000806000806102008551141515620020f157600080fd5b879150602090505b61020081111515620021a55780850151925060006002888115156200211a57fe5b061415620021585781836040518083600019166000191681526020018260001916600019168152602001925050506040518091039020915062002189565b8282604051808360001916600019168152602001826000191660001916815260200192505050604051809103902091505b6002878115156200219657fe5b049650602081019050620020f9565b85600019168260001916149350505050949350505050565b60008060008073ffffffffffffffffffffffffffffffffffffffff16600660008873ffffffffffffffffffffffffffffffffffffffff1673ffffffffffffffffffffffffffffffffffffffff16815260200190815260200160002060009054906101000a900473ffffffffffffffffffffffffffffffffffffffff1673ffffffffffffffffffffffffffffffffffffffff16141515156200225d57600080fd5b6200227362127500850162093a80420162002a78565b9250876080849060020a021791506000851115156200229157600080fd5b6000600560008a815260200190815260200160002060020154141515620022b757600080fd5b600660008773ffffffffffffffffffffffffffffffffffffffff1673ffffffffffffffffffffffffffffffffffffffff16815260200190815260200160002060009054906101000a900473ffffffffffffffffffffffffffffffffffffffff1690508073ffffffffffffffffffffffffffffffffffffffff166390b5561d836040518263ffffffff167c010000000000000000000000000000000000000000000000000000000002815260040180828152602001915050600060405180830381600087803b1580156200238957600080fd5b505af11580156200239e573d6000803e3d6000fd5b505050506060604051908101604052808873ffffffffffffffffffffffffffffffffffffffff1681526020018773ffffffffffffffffffffffffffffffffffffffff16815260200186815250600560008a815260200190815260200160002060008201518160000160006101000a81548173ffffffffffffffffffffffffffffffffffffffff021916908373ffffffffffffffffffffffffffffffffffffffff16021790555060208201518160010160006101000a81548173ffffffffffffffffffffffffffffffffffffffff021916908373ffffffffffffffffffffffffffffffffffffffff16021790555060408201518160020155905050873373ffffffffffffffffffffffffffffffffffffffff167ff0537507c0bb9b823a1e4f5522ed9f25512618d4d169c9eb70a5ee2e9fb8bd578888604051808373ffffffffffffffffffffffffffffffffffffffff1673ffffffffffffffffffffffffffffffffffffffff1681526020018281526020019250505060405180910390a35050505050505050565b60006060600080600080620025446200253e89620028b6565b62002910565b94506003870293506200257285856000018151811015156200256257fe5b9060200190602002015162002a34565b92506200259a85856001018151811015156200258a57fe5b9060200190602002015162002a34565b9150620025c28585600201815181101515620025b257fe5b9060200190602002015162002a34565b9050806127108302633b9aca00850201019550505050505092915050565b60008060008060418551141515620025fc5760009350620026d6565b6020850151925060408501519150606085015160001a9050601b8160ff1610156200262857601b810190505b601b8160ff1614158015620026415750601c8160ff1614155b15620026515760009350620026d6565b600186828585604051600081526020016040526040518085600019166000191681526020018460ff1660ff1681526020018360001916600019168152602001826000191660001916815260200194505050505060206040516020810390808403906000865af1158015620026c9573d6000803e3d6000fd5b5050506020604051035193505b50505092915050565b6000808284019050838110151515620026f457fe5b8091505092915050565b600080848484604051808473ffffffffffffffffffffffffffffffffffffffff1673ffffffffffffffffffffffffffffffffffffffff166c010000000000000000000000000281526014018373ffffffffffffffffffffffffffffffffffffffff1673ffffffffffffffffffffffffffffffffffffffff166c01000000000000000000000000028152601401828152602001935050505060405180910390209150620027a962001a04565b9050604080519081016040528083600019168152602001428152506004600083815260200190815260200160002060008201518160000190600019169055602082015181600101559050506200280c6001600254620026df90919063ffffffff16565b600281905550808573ffffffffffffffffffffffffffffffffffffffff167fd2f8022f659fd9c8c558f30c00fd5ee7038f7cb56da45095c3e0e7d48b3e0c4b8686604051808373ffffffffffffffffffffffffffffffffffffffff1673ffffffffffffffffffffffffffffffffffffffff1681526020018281526020019250505060405180910390a35050505050565b6000828211151515620028ab57fe5b818303905092915050565b620028c062002d27565b60008083511415620028eb57604080519081016040528060008152602001600081525091506200290a565b6020830190506040805190810160405280845181526020018281525091505b50919050565b6060600080600080620029238662002a94565b15156200292f57600080fd5b6200293a8662002acd565b9350836040519080825280602002602001820160405280156200297a57816020015b6200296662002d41565b8152602001906001900390816200295c5790505b5094506200298c866020015162002b2d565b8660200151019250600090505b83811015620029f357620029ad8362002bbb565b91506040805190810160405280838152602001848152508582815181101515620029d357fe5b906020019060200201819052508183019250808060010191505062002999565b50505050919050565b60008060006015846000015114151562002a1557600080fd5b60018460200151019150600c6101000a82510490508092505050919050565b600080600080600062002a4b866020015162002b2d565b9350838660000151039250838660200151019150826020036101000a825104905080945050505050919050565b60008183101562002a8a578162002a8c565b825b905092915050565b600080600083602001519050805160001a915060c060ff168260ff16101562002ac1576000925062002ac6565b600192505b5050919050565b6000806000806000925062002ae6856020015162002b2d565b8560200151019150846000015185602001510190505b8082101562002b225762002b108262002bbb565b82019150828060010193505062002afc565b829350505050919050565b600080825160001a9050608060ff1681101562002b4e576000915062002bb5565b60b860ff1681108062002b75575060c060ff16811015801562002b74575060f860ff1681105b5b1562002b85576001915062002bb5565b60c060ff1681101562002ba65760018060b80360ff16820301915062002bb5565b60018060f80360ff1682030191505b50919050565b600080825160001a9050608060ff1681101562002bdc576001915062002c6d565b60b860ff1681101562002bfb576001608060ff16820301915062002c6d565b60c060ff1681101562002c2d5760b78103600184019350806020036101000a8451046001820181019350505062002c6c565b60f860ff1681101562002c4c57600160c060ff16820301915062002c6d565b60f78103600184019350806020036101000a845104600182018101935050505b5b50919050565b608060405190810160405280600073ffffffffffffffffffffffffffffffffffffffff168152602001600073ffffffffffffffffffffffffffffffffffffffff16815260200160008152602001600081525090565b606060405190810160405280600073ffffffffffffffffffffffffffffffffffffffff168152602001600073ffffffffffffffffffffffffffffffffffffffff168152602001600081525090565b60405161083b8062002d5c83390190565b604080519081016040528060008152602001600081525090565b6040805190810160405280600081526020016000815250905600608060405234801561001057600080fd5b50336000806101000a81548173ffffffffffffffffffffffffffffffffffffffff021916908373ffffffffffffffffffffffffffffffffffffffff160217905550602060405190810160405280600060ff168152506001906001610075929190610083565b5060006002819055506100fa565b8280548282559060005260206000209081019282156100c4579160200282015b828111156100c3578251829060ff169055916020019190600101906100a3565b5b5090506100d191906100d5565b5090565b6100f791905b808211156100f35760008160009055506001016100db565b5090565b90565b610732806101096000396000f30060806040526004361061006d576000357c0100000000000000000000000000000000000000000000000000000000900463ffffffff1680632dcdcd0c1461007257806390b5561d146100b3578063b07576ac146100e0578063bda1504b1461010b578063d6362e9714610136575b600080fd5b34801561007e57600080fd5b5061009d60048036038101908080359060200190929190505050610161565b6040518082815260200191505060405180910390f35b3480156100bf57600080fd5b506100de6004803603810190808035906020019092919050505061026b565b005b3480156100ec57600080fd5b506100f561031c565b6040518082815260200191505060405180910390f35b34801561011757600080fd5b50610120610441565b6040518082815260200191505060405180910390f35b34801561014257600080fd5b5061014b610447565b6040518082815260200191505060405180910390f35b600060025461018d600161017f60028661046890919063ffffffff16565b6104a390919063ffffffff16565b11156101ae576101a760028361046890919063ffffffff16565b9050610266565b60016101d760016101c960028661046890919063ffffffff16565b6104a390919063ffffffff16565b8154811015156101e357fe5b9060005260206000200154600161020460028561046890919063ffffffff16565b81548110151561021057fe5b9060005260206000200154101561023c5761023560028361046890919063ffffffff16565b9050610266565b610263600161025560028561046890919063ffffffff16565b6104a390919063ffffffff16565b90505b919050565b6000809054906101000a900473ffffffffffffffffffffffffffffffffffffffff1673ffffffffffffffffffffffffffffffffffffffff163373ffffffffffffffffffffffffffffffffffffffff161415156102c657600080fd5b600181908060018154018082558091505090600182039060005260206000200160009091929091909150555061030860016002546104a390919063ffffffff16565b6002819055506103196002546104c1565b50565b6000806000809054906101000a900473ffffffffffffffffffffffffffffffffffffffff1673ffffffffffffffffffffffffffffffffffffffff163373ffffffffffffffffffffffffffffffffffffffff1614151561037a57600080fd5b60018081548110151561038957fe5b9060005260206000200154905060016002548154811015156103a757fe5b90600052602060002001546001808154811015156103c157fe5b906000526020600020018190555060016002548154811015156103e057fe5b906000526020600020016000905561040460016002546105aa90919063ffffffff16565b60028190555061041460016105c3565b61042c600180805490506105aa90919063ffffffff16565b60018161043991906106b5565b508091505090565b60025481565b600060018081548110151561045857fe5b9060005260206000200154905090565b600080600084141561047d576000915061049c565b828402905082848281151561048e57fe5b0414151561049857fe5b8091505b5092915050565b60008082840190508381101515156104b757fe5b8091505092915050565b6000808291506001838154811015156104d657fe5b906000526020600020015490505b60016104fa60028561069a90919063ffffffff16565b81548110151561050657fe5b906000526020600020015481101561057d57600161052e60028561069a90919063ffffffff16565b81548110151561053a57fe5b906000526020600020015460018481548110151561055457fe5b906000526020600020018190555061057660028461069a90919063ffffffff16565b92506104e4565b81831415156105a5578060018481548110151561059657fe5b90600052602060002001819055505b505050565b60008282111515156105b857fe5b818303905092915050565b60008060008392506001848154811015156105da57fe5b906000526020600020015491506105f084610161565b90505b600254811115801561061d575060018181548110151561060f57fe5b906000526020600020015482115b1561066c5760018181548110151561063157fe5b906000526020600020015460018581548110151561064b57fe5b906000526020600020018190555080935061066584610161565b90506105f3565b8284141515610694578160018581548110151561068557fe5b90600052602060002001819055505b50505050565b60008082848115156106a857fe5b0490508091505092915050565b8154818355818111156106dc578183600052602060002091820191016106db91906106e1565b5b505050565b61070391905b808211156106ff5760008160009055506001016106e7565b5090565b905600a165627a7a723058208259fdc259f7be6699a84ee9dde28c16f50aa267dd2848e43d67a0bdb8bd7be00029a165627a7a723058202f820ac25f70aa08feb1b71c43a4c94ce7f199a7139443bb8e7191c2ee44a62e0029608060405234801561001057600080fd5b50336000806101000a81548173ffffffffffffffffffffffffffffffffffffffff021916908373ffffffffffffffffffffffffffffffffffffffff160217905550602060405190810160405280600060ff168152506001906001610075929190610083565b5060006002819055506100fa565b8280548282559060005260206000209081019282156100c4579160200282015b828111156100c3578251829060ff169055916020019190600101906100a3565b5b5090506100d191906100d5565b5090565b6100f791905b808211156100f35760008160009055506001016100db565b5090565b90565b610732806101096000396000f30060806040526004361061006d576000357c0100000000000000000000000000000000000000000000000000000000900463ffffffff1680632dcdcd0c1461007257806390b5561d146100b3578063b07576ac146100e0578063bda1504b1461010b578063d6362e9714610136575b600080fd5b34801561007e57600080fd5b5061009d60048036038101908080359060200190929190505050610161565b6040518082815260200191505060405180910390f35b3480156100bf57600080fd5b506100de6004803603810190808035906020019092919050505061026b565b005b3480156100ec57600080fd5b506100f561031c565b6040518082815260200191505060405180910390f35b34801561011757600080fd5b50610120610441565b6040518082815260200191505060405180910390f35b34801561014257600080fd5b5061014b610447565b6040518082815260200191505060405180910390f35b600060025461018d600161017f60028661046890919063ffffffff16565b6104a390919063ffffffff16565b11156101ae576101a760028361046890919063ffffffff16565b9050610266565b60016101d760016101c960028661046890919063ffffffff16565b6104a390919063ffffffff16565b8154811015156101e357fe5b9060005260206000200154600161020460028561046890919063ffffffff16565b81548110151561021057fe5b9060005260206000200154101561023c5761023560028361046890919063ffffffff16565b9050610266565b610263600161025560028561046890919063ffffffff16565b6104a390919063ffffffff16565b90505b919050565b6000809054906101000a900473ffffffffffffffffffffffffffffffffffffffff1673ffffffffffffffffffffffffffffffffffffffff163373ffffffffffffffffffffffffffffffffffffffff161415156102c657600080fd5b600181908060018154018082558091505090600182039060005260206000200160009091929091909150555061030860016002546104a390919063ffffffff16565b6002819055506103196002546104c1565b50565b6000806000809054906101000a900473ffffffffffffffffffffffffffffffffffffffff1673ffffffffffffffffffffffffffffffffffffffff163373ffffffffffffffffffffffffffffffffffffffff1614151561037a57600080fd5b60018081548110151561038957fe5b9060005260206000200154905060016002548154811015156103a757fe5b90600052602060002001546001808154811015156103c157fe5b906000526020600020018190555060016002548154811015156103e057fe5b906000526020600020016000905561040460016002546105aa90919063ffffffff16565b60028190555061041460016105c3565b61042c600180805490506105aa90919063ffffffff16565b60018161043991906106b5565b508091505090565b60025481565b600060018081548110151561045857fe5b9060005260206000200154905090565b600080600084141561047d576000915061049c565b828402905082848281151561048e57fe5b0414151561049857fe5b8091505b5092915050565b60008082840190508381101515156104b757fe5b8091505092915050565b6000808291506001838154811015156104d657fe5b906000526020600020015490505b60016104fa60028561069a90919063ffffffff16565b81548110151561050657fe5b906000526020600020015481101561057d57600161052e60028561069a90919063ffffffff16565b81548110151561053a57fe5b906000526020600020015460018481548110151561055457fe5b906000526020600020018190555061057660028461069a90919063ffffffff16565b92506104e4565b81831415156105a5578060018481548110151561059657fe5b90600052602060002001819055505b505050565b60008282111515156105b857fe5b818303905092915050565b60008060008392506001848154811015156105da57fe5b906000526020600020015491506105f084610161565b90505b600254811115801561061d575060018181548110151561060f57fe5b906000526020600020015482115b1561066c5760018181548110151561063157fe5b906000526020600020015460018581548110151561064b57fe5b906000526020600020018190555080935061066584610161565b90506105f3565b8284141515610694578160018581548110151561068557fe5b90600052602060002001819055505b50505050565b60008082848115156106a857fe5b0490508091505092915050565b8154818355818111156106dc578183600052602060002091820191016106db91906106e1565b5b505050565b61070391905b808211156106ff5760008160009055506001016106e7565b5090565b905600a165627a7a723058208259fdc259f7be6699a84ee9dde28c16f50aa267dd2848e43d67a0bdb8bd7be00029",
  "source": "pragma solidity ^0.4.0;\n\nimport \"./SafeMath.sol\";\nimport \"./Math.sol\";\nimport \"./PlasmaRLP.sol\";\nimport \"./Merkle.sol\";\nimport \"./Validate.sol\";\nimport \"./PriorityQueue.sol\";\n\nimport \"./ERC20.sol\";\n\n\n/**\n * @title RootChain\n * @dev This contract secures a utxo payments plasma child chain to ethereum.\n */\ncontract RootChain {\n    using SafeMath for uint256;\n    using Merkle for bytes32;\n    using PlasmaRLP for bytes;\n\n\n    /*\n     * Events\n     */\n\n    event Deposit(\n        address indexed depositor,\n        uint256 indexed depositBlock,\n        address token,\n        uint256 amount\n    );\n\n    event ExitStarted(\n        address indexed exitor,\n        uint256 indexed utxoPos,\n        address token,\n        uint256 amount\n    );\n\n    event BlockSubmitted(\n        uint256 blockNumber\n    );\n\n    event TokenAdded(\n        address token\n    );\n\n\n    /*\n     * Storage\n     */\n\n    uint256 public constant CHILD_BLOCK_INTERVAL = 1000;\n\n    address public operator;\n\n    uint256 public currentChildBlock;\n    uint256 public currentDepositBlock;\n    uint256 public currentFeeExit;\n\n    mapping (uint256 => ChildBlock) public childChain;\n    mapping (uint256 => Exit) public exits;\n    mapping (address => address) public exitsQueues;\n\n    struct Exit {\n        address owner;\n        address token;\n        uint256 amount;\n    }\n\n    struct ChildBlock {\n        bytes32 root;\n        uint256 timestamp;\n    }\n\n\n    /*\n     * Modifiers\n     */\n\n    modifier onlyOperator() {\n        require(msg.sender == operator);\n        _;\n    }\n\n\n    /*\n     * Constructor\n     */\n\n    constructor()\n        public\n    {\n        operator = msg.sender;\n        currentChildBlock = CHILD_BLOCK_INTERVAL;\n        currentDepositBlock = 1;\n        currentFeeExit = 1;\n        // Support only ETH on deployment; other tokens need\n        // to be added explicitly.\n        exitsQueues[address(0)] = address(new PriorityQueue());\n    }\n\n\n    /*\n     * Public Functions\n     */\n\n    // @dev Allows anyone to add new token to Plasma chain\n    // @param token The address of the ERC20 token\n    function addToken(address _token)\n        public\n    {\n        require(!hasToken(_token));\n        exitsQueues[_token] = address(new PriorityQueue());\n        TokenAdded(_token);\n    }\n\n    /**\n     * @dev Allows Plasma chain operator to submit block root.\n     * @param _root The root of a child chain block.\n     */\n    function submitBlock(bytes32 _root)\n        public\n        onlyOperator\n    {\n        uint256 submittedBlockNumber = currentChildBlock;\n        childChain[currentChildBlock] = ChildBlock({\n            root: _root,\n            timestamp: block.timestamp\n        });\n\n        // Update block numbers.\n        currentChildBlock = currentChildBlock.add(CHILD_BLOCK_INTERVAL);\n        currentDepositBlock = 1;\n\n        emit BlockSubmitted(submittedBlockNumber);\n    }\n\n    /**\n     * @dev Allows anyone to deposit funds into the Plasma chain.\n     */\n    function deposit()\n        public\n        payable\n    {\n        // Only allow up to CHILD_BLOCK_INTERVAL deposits per child block.\n        require(currentDepositBlock < CHILD_BLOCK_INTERVAL);\n\n        writeDepositBlock(msg.sender, address(0), msg.value);\n    }\n\n\n    /**\n     * @dev Deposits approved amount of ERC20 token. Approve must be called first. Note: does not check if token was added.\n     */\n    function depositFrom(address _owner, address _token, uint256 _amount)\n        public\n    {\n        // Only allow up to CHILD_BLOCK_INTERVAL deposits per child block.\n        require(currentDepositBlock < CHILD_BLOCK_INTERVAL);\n\n        // Warning, check your ERC20 implementation. TransferFrom should return bool\n        require(ERC20(_token).transferFrom(_owner, address(this), _amount));\n        writeDepositBlock(_owner, _token, _amount);\n    }\n\n    /**\n     * @dev Starts an exit from a deposit.\n     * @param _depositPos UTXO position of the deposit.\n     * @param _token Token type to deposit.\n     * @param _amount Deposit amount.\n     */\n    function startDepositExit(uint256 _depositPos, address _token, uint256 _amount)\n        public\n    {\n        uint256 blknum = _depositPos / 1000000000;\n\n        // Check that the given UTXO is a deposit.\n        require(blknum % CHILD_BLOCK_INTERVAL != 0);\n\n        // Validate the given owner and amount.\n        bytes32 root = childChain[blknum].root;\n        bytes32 depositHash = keccak256(msg.sender, _token, _amount);\n        require(root == depositHash);\n\n        addExitToQueue(_depositPos, msg.sender, _token, _amount, childChain[blknum].timestamp);\n    }\n\n    /**\n     * @dev Allows the operator withdraw any allotted fees. Starts an exit to avoid theft.\n     * @param _token Token to withdraw.\n     * @param _amount Amount in fees to withdraw.\n     */\n    function startFeeExit(address _token, uint256 _amount)\n        public\n        onlyOperator\n    {\n        addExitToQueue(currentFeeExit, msg.sender, _token, _amount, block.timestamp + 1);\n        currentFeeExit = currentFeeExit.add(1);\n    }\n\n    /**\n     * @dev Starts to exit a specified utxo.\n     * @param _utxoPos The position of the exiting utxo in the format of blknum * 1000000000 + index * 10000 + oindex.\n     * @param _txBytes The transaction being exited in RLP bytes format.\n     * @param _proof Proof of the exiting transactions inclusion for the block specified by utxoPos.\n     * @param _sigs Both transaction signatures and confirmations signatures used to verify that the exiting transaction has been confirmed.\n     */\n    function startExit(\n        uint256 _utxoPos,\n        bytes _txBytes,\n        bytes _proof,\n        bytes _sigs\n    )\n        public\n    {\n        uint256 blknum = _utxoPos / 1000000000;\n        uint256 txindex = (_utxoPos % 1000000000) / 10000;\n        uint256 oindex = _utxoPos - blknum * 1000000000 - txindex * 10000;\n\n        // Check the sender owns this UTXO.\n        var exitingTx = _txBytes.createExitingTx(oindex);\n        require(msg.sender == exitingTx.exitor);\n\n        // Check the transaction was included in the chain and is correctly signed.\n        bytes32 root = childChain[blknum].root;\n        bytes32 merkleHash = keccak256(keccak256(_txBytes), ByteUtils.slice(_sigs, 0, 130));\n        require(Validate.checkSigs(keccak256(_txBytes), root, exitingTx.inputCount, _sigs));\n        require(merkleHash.checkMembership(txindex, root, _proof));\n\n        addExitToQueue(_utxoPos, exitingTx.exitor, exitingTx.token, exitingTx.amount, childChain[blknum].timestamp);\n    }\n\n    /**\n     * @dev Allows anyone to challenge an exiting transaction by submitting proof of a double spend on the child chain.\n     * @param _cUtxoPos The position of the challenging utxo.\n     * @param _eUtxoIndex The output position of the exiting utxo.\n     * @param _txBytes The challenging transaction in bytes RLP form.\n     * @param _proof Proof of inclusion for the transaction used to challenge.\n     * @param _sigs Signatures for the transaction used to challenge.\n     * @param _confirmationSig The confirmation signature for the transaction used to challenge.\n     */\n    function challengeExit(\n        uint256 _cUtxoPos,\n        uint256 _eUtxoIndex,\n        bytes _txBytes,\n        bytes _proof,\n        bytes _sigs,\n        bytes _confirmationSig\n    )\n        public\n    {\n        uint256 eUtxoPos = _txBytes.getUtxoPos(_eUtxoIndex);\n        uint256 txindex = (_cUtxoPos % 1000000000) / 10000;\n        bytes32 root = childChain[_cUtxoPos / 1000000000].root;\n        var txHash = keccak256(_txBytes);\n        var confirmationHash = keccak256(txHash, root);\n        var merkleHash = keccak256(txHash, _sigs);\n        address owner = exits[eUtxoPos].owner;\n\n        // Validate the spending transaction.\n        require(owner == ECRecovery.recover(confirmationHash, _confirmationSig));\n        require(merkleHash.checkMembership(txindex, root, _proof));\n\n        // Delete the owner but keep the amount to prevent another exit.\n        delete exits[eUtxoPos].owner;\n    }\n\n    /**\n     * @dev Processes any exits that have completed the challenge period.\n     * @param _token Token type to process.\n     */\n    function finalizeExits(address _token)\n        public\n    {\n        uint256 utxoPos;\n        uint256 exitable_at;\n        (utxoPos, exitable_at) = getNextExit(_token);\n        Exit memory currentExit = exits[utxoPos];\n        PriorityQueue queue = PriorityQueue(exitsQueues[_token]);\n        while (exitable_at < block.timestamp) {\n            currentExit = exits[utxoPos];\n\n            queue.delMin();\n            delete exits[utxoPos].owner;\n\n            if (_token == address(0)) {\n                currentExit.owner.transfer(currentExit.amount);\n            }\n            else {\n                require(ERC20(_token).transfer(currentExit.owner, currentExit.amount));\n            }\n\n            if (queue.currentSize() > 0) {\n                (utxoPos, exitable_at) = getNextExit(_token);\n            } else {\n                return;\n            }\n        }\n    }\n\n\n    /*\n     * Public view functions\n     */\n\n    /**\n     * @dev Checks if queue for particular token was created.\n     * @param _token Address of the token.\n     */\n    function hasToken(address _token)\n        view\n        public\n        returns (bool)\n    {\n        return exitsQueues[_token] != address(0);\n    }\n\n    /**\n     * @dev Queries the child chain.\n     * @param _blockNumber Number of the block to return.\n     * @return Child chain block at the specified block number.\n     */\n    function getChildChain(uint256 _blockNumber)\n        public\n        view\n        returns (bytes32, uint256)\n    {\n        return (childChain[_blockNumber].root, childChain[_blockNumber].timestamp);\n    }\n\n    /**\n     * @dev Determines the next deposit block number.\n     * @return Block number to be given to the next deposit block.\n     */\n    function getDepositBlock()\n        public\n        view\n        returns (uint256)\n    {\n        return currentChildBlock.sub(CHILD_BLOCK_INTERVAL).add(currentDepositBlock);\n    }\n\n    /**\n     * @dev Returns information about an exit.\n     * @param _utxoPos Position of the UTXO in the chain.\n     * @return A tuple representing the active exit for the given UTXO.\n     */\n    function getExit(uint256 _utxoPos)\n        public\n        view\n        returns (address, address, uint256)\n    {\n        return (exits[_utxoPos].owner, exits[_utxoPos].token, exits[_utxoPos].amount);\n    }\n\n    /**\n     * @dev Determines the next exit to be processed.\n     * @param _token Asset type to be exited.\n     * @return A tuple of the position and time when this exit can be processed.\n     */\n    function getNextExit(address _token)\n        public\n        view\n        returns (uint256, uint256)\n    {\n        uint256 priority = PriorityQueue(exitsQueues[_token]).getMin();\n        uint256 utxoPos = uint256(uint128(priority));\n        uint256 exitable_at = priority >> 128;\n        return (utxoPos, exitable_at);\n    }\n\n\n    /*\n     * Private functions\n     */\n\n\n    /**\n     * @dev Adds deposit block to chain of blocks.\n     * @param _owner Owner of deposit and created UTXO.\n     * @param _token Deposited token (0x0 represents ETH).\n     * @param _amount The amount deposited.\n     */\n    function writeDepositBlock(address _owner, address _token, uint256 _amount)\n        private\n    {\n        bytes32 root = keccak256(_owner, _token, _amount);\n        uint256 depositBlock = getDepositBlock();\n        childChain[depositBlock] = ChildBlock({\n            root: root,\n            timestamp: block.timestamp\n        });\n        currentDepositBlock = currentDepositBlock.add(1);\n\n        emit Deposit(_owner, depositBlock, _token, _amount);\n    }\n\n\n    /**\n     * @dev Adds an exit to the exit queue.\n     * @param _utxoPos Position of the UTXO in the child chain.\n     * @param _exitor Owner of the UTXO.\n     * @param _token Token to be exited.\n     * @param _amount Amount to be exited.\n     * @param _created_at Time when the UTXO was created.\n     */\n    function addExitToQueue(\n        uint256 _utxoPos,\n        address _exitor,\n        address _token,\n        uint256 _amount,\n        uint256 _created_at\n    )\n        private\n    {\n        // Check that we're exiting a known token.\n        require(exitsQueues[_token] != address(0));\n\n        // Calculate priority.\n        uint256 exitable_at = Math.max(_created_at + 2 weeks, block.timestamp + 1 weeks);\n        uint256 priority = exitable_at << 128 | _utxoPos;\n\n        // Check exit is valid and doesn't already exist.\n        require(_amount > 0);\n        require(exits[_utxoPos].amount == 0);\n\n        PriorityQueue queue = PriorityQueue(exitsQueues[_token]);\n        queue.insert(priority);\n\n        exits[_utxoPos] = Exit({\n            owner: _exitor,\n            token: _token,\n            amount: _amount\n        });\n\n        emit ExitStarted(msg.sender, _utxoPos, _token, _amount);\n    }\n}\n",
  "sourcePath": "/Users/pongcheecharern/gri-js/gaia-poa-chain/gaia-rootchain/contracts/RootChain.sol",
  "compiler": {
    "name": "solc",
    "version": "0.4.24+commit.e67f0147.Emscripten.clang"
  },
  "schemaVersion": "2.0.1",
  "updatedAt": "2018-09-08T14:00:33.633Z"
}